{
  "contractName": "Patient1",
  "abi": [
    {
      "inputs": [],
      "payable": false,
      "stateMutability": "nonpayable",
      "type": "constructor"
    },
    {
      "anonymous": false,
      "inputs": [
        {
          "indexed": false,
          "internalType": "address",
          "name": "_doctor",
          "type": "address"
        },
        {
          "indexed": false,
          "internalType": "string",
          "name": "message",
          "type": "string"
        }
      ],
      "name": "accessGiven",
      "type": "event"
    },
    {
      "anonymous": false,
      "inputs": [
        {
          "indexed": false,
          "internalType": "address",
          "name": "_doctor",
          "type": "address"
        },
        {
          "indexed": false,
          "internalType": "string",
          "name": "message",
          "type": "string"
        }
      ],
      "name": "accessRevoked",
      "type": "event"
    },
    {
      "anonymous": false,
      "inputs": [
        {
          "indexed": false,
          "internalType": "address",
          "name": "_patient",
          "type": "address"
        },
        {
          "indexed": false,
          "internalType": "string",
          "name": "message",
          "type": "string"
        }
      ],
      "name": "detailsAdded",
      "type": "event"
    },
    {
      "anonymous": false,
      "inputs": [
        {
          "indexed": false,
          "internalType": "address",
          "name": "_doctor",
          "type": "address"
        },
        {
          "indexed": false,
          "internalType": "string",
          "name": "message",
          "type": "string"
        }
      ],
      "name": "prescrAdded",
      "type": "event"
    },
    {
      "constant": true,
      "inputs": [
        {
          "internalType": "address",
          "name": "",
          "type": "address"
        }
      ],
      "name": "doctors",
      "outputs": [
        {
          "internalType": "bool",
          "name": "",
          "type": "bool"
        }
      ],
      "payable": false,
      "stateMutability": "view",
      "type": "function"
    },
    {
      "constant": true,
      "inputs": [
        {
          "internalType": "uint256",
          "name": "",
          "type": "uint256"
        }
      ],
      "name": "p_List",
      "outputs": [
        {
          "internalType": "address",
          "name": "",
          "type": "address"
        }
      ],
      "payable": false,
      "stateMutability": "view",
      "type": "function"
    },
    {
      "constant": true,
      "inputs": [
        {
          "internalType": "address",
          "name": "",
          "type": "address"
        }
      ],
      "name": "patientInfo",
      "outputs": [
        {
          "internalType": "string",
          "name": "name",
          "type": "string"
        },
        {
          "internalType": "uint256",
          "name": "age",
          "type": "uint256"
        },
        {
          "internalType": "string",
          "name": "city",
          "type": "string"
        },
        {
          "internalType": "string",
          "name": "record_hash",
          "type": "string"
        }
      ],
      "payable": false,
      "stateMutability": "view",
      "type": "function"
    },
    {
      "constant": true,
      "inputs": [],
      "name": "patientsCount",
      "outputs": [
        {
          "internalType": "uint256",
          "name": "",
          "type": "uint256"
        }
      ],
      "payable": false,
      "stateMutability": "view",
      "type": "function"
    },
    {
      "constant": true,
      "inputs": [
        {
          "internalType": "address",
          "name": "",
          "type": "address"
        }
      ],
      "name": "pharmacy",
      "outputs": [
        {
          "internalType": "bool",
          "name": "",
          "type": "bool"
        }
      ],
      "payable": false,
      "stateMutability": "view",
      "type": "function"
    },
    {
      "constant": false,
      "inputs": [
        {
          "internalType": "string",
          "name": "_name",
          "type": "string"
        },
        {
          "internalType": "uint256",
          "name": "_age",
          "type": "uint256"
        },
        {
          "internalType": "string",
          "name": "_city",
          "type": "string"
        }
      ],
      "name": "addDetails",
      "outputs": [
        {
          "internalType": "string",
          "name": "",
          "type": "string"
        }
      ],
      "payable": false,
      "stateMutability": "nonpayable",
      "type": "function"
    },
    {
      "constant": true,
      "inputs": [
        {
          "internalType": "address",
          "name": "paddr",
          "type": "address"
        }
      ],
      "name": "getPatientDet",
      "outputs": [
        {
          "internalType": "string",
          "name": "",
          "type": "string"
        },
        {
          "internalType": "uint256",
          "name": "",
          "type": "uint256"
        },
        {
          "internalType": "string",
          "name": "",
          "type": "string"
        },
        {
          "internalType": "string",
          "name": "",
          "type": "string"
        }
      ],
      "payable": false,
      "stateMutability": "view",
      "type": "function"
    },
    {
      "constant": false,
      "inputs": [
        {
          "internalType": "address",
          "name": "_doctor_address",
          "type": "address"
        }
      ],
      "name": "giveAccess",
      "outputs": [
        {
          "internalType": "string",
          "name": "",
          "type": "string"
        }
      ],
      "payable": false,
      "stateMutability": "nonpayable",
      "type": "function"
    },
    {
      "constant": false,
      "inputs": [
        {
          "internalType": "address",
          "name": "_doctor_address",
          "type": "address"
        }
      ],
      "name": "revokeAccess",
      "outputs": [
        {
          "internalType": "string",
          "name": "",
          "type": "string"
        }
      ],
      "payable": false,
      "stateMutability": "nonpayable",
      "type": "function"
    },
    {
      "constant": true,
      "inputs": [
        {
          "internalType": "address",
          "name": "paddr",
          "type": "address"
        }
      ],
      "name": "getAccessList",
      "outputs": [
        {
          "internalType": "address[]",
          "name": "",
          "type": "address[]"
        }
      ],
      "payable": false,
      "stateMutability": "view",
      "type": "function"
    },
    {
      "constant": true,
      "inputs": [
        {
          "internalType": "address",
          "name": "paddr",
          "type": "address"
        },
        {
          "internalType": "address",
          "name": "_doctor_address",
          "type": "address"
        }
      ],
      "name": "getHash",
      "outputs": [
        {
          "internalType": "string",
          "name": "",
          "type": "string"
        }
      ],
      "payable": false,
      "stateMutability": "view",
      "type": "function"
    },
    {
      "constant": false,
      "inputs": [
        {
          "internalType": "address",
          "name": "daddr",
          "type": "address"
        },
        {
          "internalType": "string",
          "name": "disease_name",
          "type": "string"
        },
        {
          "internalType": "string",
          "name": "medications",
          "type": "string"
        }
      ],
      "name": "addPrescriptions",
      "outputs": [
        {
          "internalType": "string",
          "name": "",
          "type": "string"
        }
      ],
      "payable": false,
      "stateMutability": "nonpayable",
      "type": "function"
    },
    {
      "constant": false,
      "inputs": [
        {
          "internalType": "address",
          "name": "_pharma_address",
          "type": "address"
        }
      ],
      "name": "giveAccessPrescr",
      "outputs": [
        {
          "internalType": "string",
          "name": "",
          "type": "string"
        }
      ],
      "payable": false,
      "stateMutability": "nonpayable",
      "type": "function"
    },
    {
      "constant": false,
      "inputs": [
        {
          "internalType": "address",
          "name": "_pharma_address",
          "type": "address"
        }
      ],
      "name": "revokeAccessPrescr",
      "outputs": [
        {
          "internalType": "string",
          "name": "",
          "type": "string"
        }
      ],
      "payable": false,
      "stateMutability": "nonpayable",
      "type": "function"
    },
    {
      "constant": true,
      "inputs": [
        {
          "internalType": "address",
          "name": "_doc_addr",
          "type": "address"
        },
        {
          "internalType": "address",
          "name": "_ph_addr",
          "type": "address"
        },
        {
          "internalType": "string",
          "name": "_disease_name",
          "type": "string"
        }
      ],
      "name": "getPrescriptions",
      "outputs": [
        {
          "internalType": "string",
          "name": "",
          "type": "string"
        }
      ],
      "payable": false,
      "stateMutability": "view",
      "type": "function"
    },
    {
      "constant": false,
      "inputs": [
        {
          "internalType": "string",
          "name": "_hash",
          "type": "string"
        }
      ],
      "name": "setIPFShash",
      "outputs": [
        {
          "internalType": "string",
          "name": "",
          "type": "string"
        }
      ],
      "payable": false,
      "stateMutability": "nonpayable",
      "type": "function"
    }
  ],
  "bytecode": "0x608060405234801561001057600080fd5b50336000806101000a81548173ffffffffffffffffffffffffffffffffffffffff021916908373ffffffffffffffffffffffffffffffffffffffff160217905550612cee806100606000396000f3fe608060405234801561001057600080fd5b50600436106101005760003560e01c8063a9583c2211610097578063d021941711610066578063d021941714610c4a578063e5c5097e14610de6578063e7a7138114610f1a578063f8cc185014610f7657610100565b8063a9583c2214610928578063b6b1289d14610984578063c4ec57c9146109a2578063cf12e87014610b8d57610100565b806380efcb3c116100d357806380efcb3c1461054057806385e68531146105d95780638680d8b01461069657806391accc141461086b57610100565b8063183739d914610105578063242505b5146102795780632a91411c146102e75780636142d2dc146103a4575b600080fd5b6101fe6004803603606081101561011b57600080fd5b81019080803573ffffffffffffffffffffffffffffffffffffffff169060200190929190803573ffffffffffffffffffffffffffffffffffffffff1690602001909291908035906020019064010000000081111561017857600080fd5b82018360208201111561018a57600080fd5b803590602001918460018302840111640100000000831117156101ac57600080fd5b91908080601f016020809104026020016040519081016040528093929190818152602001838380828437600081840152601f19601f820116905080830192505050505050509192919290505050611053565b6040518080602001828103825283818151815260200191508051906020019080838360005b8381101561023e578082015181840152602081019050610223565b50505050905090810190601f16801561026b5780820380516001836020036101000a031916815260200191505b509250505060405180910390f35b6102a56004803603602081101561028f57600080fd5b8101908080359060200190929190505050611246565b604051808273ffffffffffffffffffffffffffffffffffffffff1673ffffffffffffffffffffffffffffffffffffffff16815260200191505060405180910390f35b610329600480360360208110156102fd57600080fd5b81019080803573ffffffffffffffffffffffffffffffffffffffff169060200190929190505050611282565b6040518080602001828103825283818151815260200191508051906020019080838360005b8381101561036957808201518184015260208101905061034e565b50505050905090810190601f1680156103965780820380516001836020036101000a031916815260200191505b509250505060405180910390f35b6103e6600480360360208110156103ba57600080fd5b81019080803573ffffffffffffffffffffffffffffffffffffffff1690602001909291905050506114c1565b60405180806020018581526020018060200180602001848103845288818151815260200191508051906020019080838360005b83811015610434578082015181840152602081019050610419565b50505050905090810190601f1680156104615780820380516001836020036101000a031916815260200191505b50848103835286818151815260200191508051906020019080838360005b8381101561049a57808201518184015260208101905061047f565b50505050905090810190601f1680156104c75780820380516001836020036101000a031916815260200191505b50848103825285818151815260200191508051906020019080838360005b838110156105005780820151818401526020810190506104e5565b50505050905090810190601f16801561052d5780820380516001836020036101000a031916815260200191505b5097505050505050505060405180910390f35b6105826004803603602081101561055657600080fd5b81019080803573ffffffffffffffffffffffffffffffffffffffff1690602001909291905050506116b9565b6040518080602001828103825283818151815260200191508051906020019060200280838360005b838110156105c55780820151818401526020810190506105aa565b505050509050019250505060405180910390f35b61061b600480360360208110156105ef57600080fd5b81019080803573ffffffffffffffffffffffffffffffffffffffff169060200190929190505050611789565b6040518080602001828103825283818151815260200191508051906020019080838360005b8381101561065b578082015181840152602081019050610640565b50505050905090810190601f1680156106885780820380516001836020036101000a031916815260200191505b509250505060405180910390f35b6107f0600480360360608110156106ac57600080fd5b81019080803590602001906401000000008111156106c957600080fd5b8201836020820111156106db57600080fd5b803590602001918460018302840111640100000000831117156106fd57600080fd5b91908080601f016020809104026020016040519081016040528093929190818152602001838380828437600081840152601f19601f820116905080830192505050505050509192919290803590602001909291908035906020019064010000000081111561076a57600080fd5b82018360208201111561077c57600080fd5b8035906020019184600183028401116401000000008311171561079e57600080fd5b91908080601f016020809104026020016040519081016040528093929190818152602001838380828437600081840152601f19601f8201169050808301925050505050505091929192905050506119c8565b6040518080602001828103825283818151815260200191508051906020019080838360005b83811015610830578082015181840152602081019050610815565b50505050905090810190601f16801561085d5780820380516001836020036101000a031916815260200191505b509250505060405180910390f35b6108ad6004803603602081101561088157600080fd5b81019080803573ffffffffffffffffffffffffffffffffffffffff169060200190929190505050611c05565b6040518080602001828103825283818151815260200191508051906020019080838360005b838110156108ed5780820151818401526020810190506108d2565b50505050905090810190601f16801561091a5780820380516001836020036101000a031916815260200191505b509250505060405180910390f35b61096a6004803603602081101561093e57600080fd5b81019080803573ffffffffffffffffffffffffffffffffffffffff169060200190929190505050611e6d565b604051808215151515815260200191505060405180910390f35b61098c611e8d565b6040518082815260200191505060405180910390f35b610b12600480360360608110156109b857600080fd5b81019080803573ffffffffffffffffffffffffffffffffffffffff169060200190929190803590602001906401000000008111156109f557600080fd5b820183602082011115610a0757600080fd5b80359060200191846001830284011164010000000083111715610a2957600080fd5b91908080601f016020809104026020016040519081016040528093929190818152602001838380828437600081840152601f19601f82011690508083019250505050505050919291929080359060200190640100000000811115610a8c57600080fd5b820183602082011115610a9e57600080fd5b80359060200191846001830284011164010000000083111715610ac057600080fd5b91908080601f016020809104026020016040519081016040528093929190818152602001838380828437600081840152601f19601f820116905080830192505050505050509192919290505050611e93565b6040518080602001828103825283818151815260200191508051906020019080838360005b83811015610b52578082015181840152602081019050610b37565b50505050905090810190601f168015610b7f5780820380516001836020036101000a031916815260200191505b509250505060405180910390f35b610bcf60048036036020811015610ba357600080fd5b81019080803573ffffffffffffffffffffffffffffffffffffffff1690602001909291905050506120d4565b6040518080602001828103825283818151815260200191508051906020019080838360005b83811015610c0f578082015181840152602081019050610bf4565b50505050905090810190601f168015610c3c5780820380516001836020036101000a031916815260200191505b509250505060405180910390f35b610c8c60048036036020811015610c6057600080fd5b81019080803573ffffffffffffffffffffffffffffffffffffffff16906020019092919050505061233c565b60405180806020018581526020018060200180602001848103845288818151815260200191508051906020019080838360005b83811015610cda578082015181840152602081019050610cbf565b50505050905090810190601f168015610d075780820380516001836020036101000a031916815260200191505b50848103835286818151815260200191508051906020019080838360005b83811015610d40578082015181840152602081019050610d25565b50505050905090810190601f168015610d6d5780820380516001836020036101000a031916815260200191505b50848103825285818151815260200191508051906020019080838360005b83811015610da6578082015181840152602081019050610d8b565b50505050905090810190601f168015610dd35780820380516001836020036101000a031916815260200191505b5097505050505050505060405180910390f35b610e9f60048036036020811015610dfc57600080fd5b8101908080359060200190640100000000811115610e1957600080fd5b820183602082011115610e2b57600080fd5b80359060200191846001830284011164010000000083111715610e4d57600080fd5b91908080601f016020809104026020016040519081016040528093929190818152602001838380828437600081840152601f19601f82011690508083019250505050505050919291929050505061262f565b6040518080602001828103825283818151815260200191508051906020019080838360005b83811015610edf578082015181840152602081019050610ec4565b50505050905090810190601f168015610f0c5780820380516001836020036101000a031916815260200191505b509250505060405180910390f35b610f5c60048036036020811015610f3057600080fd5b81019080803573ffffffffffffffffffffffffffffffffffffffff1690602001909291905050506126c5565b604051808215151515815260200191505060405180910390f35b610fd860048036036040811015610f8c57600080fd5b81019080803573ffffffffffffffffffffffffffffffffffffffff169060200190929190803573ffffffffffffffffffffffffffffffffffffffff1690602001909291905050506126e5565b6040518080602001828103825283818151815260200191508051906020019080838360005b83811015611018578082015181840152602081019050610ffd565b50505050905090810190601f1680156110455780820380516001836020036101000a031916815260200191505b509250505060405180910390f35b606060011515600560008573ffffffffffffffffffffffffffffffffffffffff1673ffffffffffffffffffffffffffffffffffffffff16815260200190815260200160002060009054906101000a900460ff161515146110fe576040517f08c379a0000000000000000000000000000000000000000000000000000000008152600401808060200182810382526044815260200180612b1e6044913960600191505060405180910390fd5b600660008573ffffffffffffffffffffffffffffffffffffffff1673ffffffffffffffffffffffffffffffffffffffff168152602001908152602001600020826040518082805190602001908083835b60208310611171578051825260208201915060208101905060208303925061114e565b6001836020036101000a03801982511681845116808217855250505050505090500191505090815260200160405180910390208054600181600116156101000203166002900480601f0160208091040260200160405190810160405280929190818152602001828054600181600116156101000203166002900480156112385780601f1061120d57610100808354040283529160200191611238565b820191906000526020600020905b81548152906001019060200180831161121b57829003601f168201915b505050505090509392505050565b6001818154811061125357fe5b906000526020600020016000915054906101000a900473ffffffffffffffffffffffffffffffffffffffff1681565b606060011515600560008473ffffffffffffffffffffffffffffffffffffffff1673ffffffffffffffffffffffffffffffffffffffff16815260200190815260200160002060009054906101000a900460ff1615151461132d576040517f08c379a0000000000000000000000000000000000000000000000000000000008152600401808060200182810382526030815260200180612c8a6030913960400191505060405180910390fd5b6000600560008473ffffffffffffffffffffffffffffffffffffffff1673ffffffffffffffffffffffffffffffffffffffff16815260200190815260200160002060006101000a81548160ff021916908315150217905550600360003373ffffffffffffffffffffffffffffffffffffffff1673ffffffffffffffffffffffffffffffffffffffff1681526020019081526020016000206004018054806113d057fe5b6001900381819060005260206000200160006101000a81549073ffffffffffffffffffffffffffffffffffffffff021916905590557f26a779b544786104fb4a364d37b0091d141939fa90570056c0a1bc6a07bb957282604051808273ffffffffffffffffffffffffffffffffffffffff1673ffffffffffffffffffffffffffffffffffffffff1681526020018060200182810382526029815260200180612bc5602991396040019250505060405180910390a16040518060400160405280601181526020017f416363657373206973207265766f6b65640000000000000000000000000000008152509050919050565b6003602052806000526040600020600091509050806000018054600181600116156101000203166002900480601f01602080910402602001604051908101604052809291908181526020018280546001816001161561010002031660029004801561156d5780601f106115425761010080835404028352916020019161156d565b820191906000526020600020905b81548152906001019060200180831161155057829003601f168201915b505050505090806001015490806002018054600181600116156101000203166002900480601f0160208091040260200160405190810160405280929190818152602001828054600181600116156101000203166002900480156116115780601f106115e657610100808354040283529160200191611611565b820191906000526020600020905b8154815290600101906020018083116115f457829003601f168201915b505050505090806005018054600181600116156101000203166002900480601f0160208091040260200160405190810160405280929190818152602001828054600181600116156101000203166002900480156116af5780601f10611684576101008083540402835291602001916116af565b820191906000526020600020905b81548152906001019060200180831161169257829003601f168201915b5050505050905084565b6060600360008373ffffffffffffffffffffffffffffffffffffffff1673ffffffffffffffffffffffffffffffffffffffff16815260200190815260200160002060030180548060200260200160405190810160405280929190818152602001828054801561177d57602002820191906000526020600020905b8160009054906101000a900473ffffffffffffffffffffffffffffffffffffffff1673ffffffffffffffffffffffffffffffffffffffff1681526020019060010190808311611733575b50505050509050919050565b606060011515600460008473ffffffffffffffffffffffffffffffffffffffff1673ffffffffffffffffffffffffffffffffffffffff16815260200190815260200160002060009054906101000a900460ff16151514611834576040517f08c379a0000000000000000000000000000000000000000000000000000000008152600401808060200182810382526022815260200180612ba36022913960400191505060405180910390fd5b6000600460008473ffffffffffffffffffffffffffffffffffffffff1673ffffffffffffffffffffffffffffffffffffffff16815260200190815260200160002060006101000a81548160ff021916908315150217905550600360003373ffffffffffffffffffffffffffffffffffffffff1673ffffffffffffffffffffffffffffffffffffffff1681526020019081526020016000206003018054806118d757fe5b6001900381819060005260206000200160006101000a81549073ffffffffffffffffffffffffffffffffffffffff021916905590557f26a779b544786104fb4a364d37b0091d141939fa90570056c0a1bc6a07bb957282604051808273ffffffffffffffffffffffffffffffffffffffff1673ffffffffffffffffffffffffffffffffffffffff1681526020018060200182810382526027815260200180612ad5602791396040019250505060405180910390a16040518060400160405280601181526020017f416363657373206973207265766f6b65640000000000000000000000000000008152509050919050565b60606119d2612873565b8481600001819052508381602001818152505082816040018190525080600360003373ffffffffffffffffffffffffffffffffffffffff1673ffffffffffffffffffffffffffffffffffffffff1681526020019081526020016000206000820151816000019080519060200190611a4a9291906128a9565b50602082015181600101556040820151816002019080519060200190611a719291906128a9565b506060820151816003019080519060200190611a8e929190612929565b506080820151816004019080519060200190611aab929190612929565b5060a0820151816005019080519060200190611ac89291906128a9565b509050506001803390806001815401808255809150509060018203906000526020600020016000909192909190916101000a81548173ffffffffffffffffffffffffffffffffffffffff021916908373ffffffffffffffffffffffffffffffffffffffff16021790555050506002600081548092919060010191905055507f2dd0dbde0b541d654cbad7f473661699639a8db7f1f8150566180d8c7ba78e3533604051808273ffffffffffffffffffffffffffffffffffffffff1673ffffffffffffffffffffffffffffffffffffffff1681526020018060200182810382526032815260200180612c2e603291396040019250505060405180910390a16040518060400160405280601981526020017f44657461696c732061646465642073756363657366756c6c79000000000000008152509150509392505050565b606060001515600560008473ffffffffffffffffffffffffffffffffffffffff1673ffffffffffffffffffffffffffffffffffffffff16815260200190815260200160002060009054906101000a900460ff16151514611cb0576040517f08c379a0000000000000000000000000000000000000000000000000000000008152600401808060200182810382526039815260200180612a9c6039913960400191505060405180910390fd5b6001600560008473ffffffffffffffffffffffffffffffffffffffff1673ffffffffffffffffffffffffffffffffffffffff16815260200190815260200160002060006101000a81548160ff0219169083151502179055506001600360003373ffffffffffffffffffffffffffffffffffffffff1673ffffffffffffffffffffffffffffffffffffffff1681526020019081526020016000206004018390806001815401808255809150509060018203906000526020600020016000909192909190916101000a81548173ffffffffffffffffffffffffffffffffffffffff021916908373ffffffffffffffffffffffffffffffffffffffff16021790555050507f5a2a28d0708bd1dc5a38513de612a87bee6f714881097828fd8c036e68e4386a82604051808273ffffffffffffffffffffffffffffffffffffffff1673ffffffffffffffffffffffffffffffffffffffff1681526020018060200182810382526041815260200180612b62604191396060019250505060405180910390a16040518060400160405280600e81526020017f416363657373206772616e7465640000000000000000000000000000000000008152509050919050565b60046020528060005260406000206000915054906101000a900460ff1681565b60025481565b606060011515600460008673ffffffffffffffffffffffffffffffffffffffff1673ffffffffffffffffffffffffffffffffffffffff16815260200190815260200160002060009054906101000a900460ff16151514611f3e576040517f08c379a0000000000000000000000000000000000000000000000000000000008152600401808060200182810382526040815260200180612bee6040913960400191505060405180910390fd5b81600660008673ffffffffffffffffffffffffffffffffffffffff1673ffffffffffffffffffffffffffffffffffffffff168152602001908152602001600020846040518082805190602001908083835b60208310611fb25780518252602082019150602081019050602083039250611f8f565b6001836020036101000a03801982511681845116808217855250505050505090500191505090815260200160405180910390209080519060200190611ff89291906129b3565b507f135a2df4e60484a32e14685507e925f73b00aa0d6f924ad95d66c27a2d6ed1b684604051808273ffffffffffffffffffffffffffffffffffffffff1673ffffffffffffffffffffffffffffffffffffffff16815260200180602001828103825260138152602001807f507265736372697074696f6e73206164646564000000000000000000000000008152506020019250505060405180910390a16040518060400160405280601381526020017f507265736372697074696f6e732061646465640000000000000000000000000081525090509392505050565b606060001515600460008473ffffffffffffffffffffffffffffffffffffffff1673ffffffffffffffffffffffffffffffffffffffff16815260200190815260200160002060009054906101000a900460ff1615151461217f576040517f08c379a0000000000000000000000000000000000000000000000000000000008152600401808060200182810382526022815260200180612afc6022913960400191505060405180910390fd5b6001600460008473ffffffffffffffffffffffffffffffffffffffff1673ffffffffffffffffffffffffffffffffffffffff16815260200190815260200160002060006101000a81548160ff0219169083151502179055506001600360003373ffffffffffffffffffffffffffffffffffffffff1673ffffffffffffffffffffffffffffffffffffffff1681526020019081526020016000206003018390806001815401808255809150509060018203906000526020600020016000909192909190916101000a81548173ffffffffffffffffffffffffffffffffffffffff021916908373ffffffffffffffffffffffffffffffffffffffff16021790555050507f5a2a28d0708bd1dc5a38513de612a87bee6f714881097828fd8c036e68e4386a82604051808273ffffffffffffffffffffffffffffffffffffffff1673ffffffffffffffffffffffffffffffffffffffff168152602001806020018281038252602a815260200180612c60602a91396040019250505060405180910390a16040518060400160405280600e81526020017f416363657373206772616e7465640000000000000000000000000000000000008152509050919050565b60606000606080600360008673ffffffffffffffffffffffffffffffffffffffff1673ffffffffffffffffffffffffffffffffffffffff168152602001908152602001600020600001600360008773ffffffffffffffffffffffffffffffffffffffff1673ffffffffffffffffffffffffffffffffffffffff16815260200190815260200160002060010154600360008873ffffffffffffffffffffffffffffffffffffffff1673ffffffffffffffffffffffffffffffffffffffff168152602001908152602001600020600201600360008973ffffffffffffffffffffffffffffffffffffffff1673ffffffffffffffffffffffffffffffffffffffff168152602001908152602001600020600501838054600181600116156101000203166002900480601f0160208091040260200160405190810160405280929190818152602001828054600181600116156101000203166002900480156124e15780601f106124b6576101008083540402835291602001916124e1565b820191906000526020600020905b8154815290600101906020018083116124c457829003601f168201915b50505050509350818054600181600116156101000203166002900480601f01602080910402602001604051908101604052809291908181526020018280546001816001161561010002031660029004801561257d5780601f106125525761010080835404028352916020019161257d565b820191906000526020600020905b81548152906001019060200180831161256057829003601f168201915b50505050509150808054600181600116156101000203166002900480601f0160208091040260200160405190810160405280929190818152602001828054600181600116156101000203166002900480156126195780601f106125ee57610100808354040283529160200191612619565b820191906000526020600020905b8154815290600101906020018083116125fc57829003601f168201915b5050505050905093509350935093509193509193565b606081600360003373ffffffffffffffffffffffffffffffffffffffff1673ffffffffffffffffffffffffffffffffffffffff16815260200190815260200160002060050190805190602001906126879291906129b3565b506040518060400160405280601c81526020017f495046532068617368206164646564207375636365737366756c6c79000000008152509050919050565b60056020528060005260406000206000915054906101000a900460ff1681565b606060011515600460008473ffffffffffffffffffffffffffffffffffffffff1673ffffffffffffffffffffffffffffffffffffffff16815260200190815260200160002060009054906101000a900460ff16151514612790576040517f08c379a0000000000000000000000000000000000000000000000000000000008152600401808060200182810382526022815260200180612ba36022913960400191505060405180910390fd5b600360008473ffffffffffffffffffffffffffffffffffffffff1673ffffffffffffffffffffffffffffffffffffffff1681526020019081526020016000206005018054600181600116156101000203166002900480601f0160208091040260200160405190810160405280929190818152602001828054600181600116156101000203166002900480156128665780601f1061283b57610100808354040283529160200191612866565b820191906000526020600020905b81548152906001019060200180831161284957829003601f168201915b5050505050905092915050565b6040518060c001604052806060815260200160008152602001606081526020016060815260200160608152602001606081525090565b828054600181600116156101000203166002900490600052602060002090601f016020900481019282601f106128ea57805160ff1916838001178555612918565b82800160010185558215612918579182015b828111156129175782518255916020019190600101906128fc565b5b5090506129259190612a33565b5090565b8280548282559060005260206000209081019282156129a2579160200282015b828111156129a15782518260006101000a81548173ffffffffffffffffffffffffffffffffffffffff021916908373ffffffffffffffffffffffffffffffffffffffff16021790555091602001919060010190612949565b5b5090506129af9190612a58565b5090565b828054600181600116156101000203166002900490600052602060002090601f016020900481019282601f106129f457805160ff1916838001178555612a22565b82800160010185558215612a22579182015b82811115612a21578251825591602001919060010190612a06565b5b509050612a2f9190612a33565b5090565b612a5591905b80821115612a51576000816000905550600101612a39565b5090565b90565b612a9891905b80821115612a9457600081816101000a81549073ffffffffffffffffffffffffffffffffffffffff021916905550600101612a5e565b5090565b9056fe41636365737320746f2074686520707265736372697074696f6e7320616c726561647920676976656e20746f2074686520706861726d61637941636365737320686173206265656e207265766f6b65642066726f6d2074686520646f63746f7241636365737320616c726561647920676976656e20746f2074686520646f63746f7254686520706861726d61637920646f65736e2774206861766520746865207065726d697373696f6e20746f206163636573732074686520707265736372697074696f6e7341636365737320746f2074686520707265736372697074696f6e7320676976656e20746f207468652061626f76652061646472657373656420706861726d61637954686520446f63746f7220646f65736e2774206861766520616e792061636365737341636365737320686173206265656e207265766f6b65642066726f6d2074686520706861726d61637954686520446f63746f7220646f65736e2774206861766520746865207065726d697373696f6e20746f2067697665206f757420707265736372697074696f6e7344657461696c73206f66207468652070617469656e7420686173206265656e206164646564207375636365737366756c6c7941636365737320676976656e20746f207468652061626f76652061646472657373656420646f63746f725468697320706172746963756c617220706861726d61637920646f65736e2774206861766520616e7920616363657373a265627a7a7231582070c90f8d8b589ca0728c7c9b12e6bc4d11a6b0cdcbaed8258b6a43d98752bfcb64736f6c63430005100032",
  "source": "//SPDX-License-Identifier: MIT\n\npragma solidity ^0.5.0;\n\ncontract Patient1{\n\n    struct patient {\n        string name;\n        uint age;\n        string city;\n        address[] doctorAccessList;\n        address[] prescAccessList;\n        string record_hash;\n        \n    }\n\n    address owner_p;\n    address[] public p_List;\n    uint public patientsCount;\n\n    mapping (address => patient) public patientInfo;\n     \n    mapping (address => bool) public doctors;\n\n    mapping (address => bool) public pharmacy;\n\n    mapping(address => mapping(string => string)) prescriptions;\n\n    event detailsAdded(address _patient, string message);\n    event accessGiven(address _doctor, string message);\n    event accessRevoked(address _doctor, string message);\n    event prescrAdded(address _doctor, string message);\n\n     modifier only_owner(){\n        require(owner_p == msg.sender);\n        _;\n    }\n\n    constructor() public {\n        owner_p = msg.sender;\n        //patientsCount = 0;\n    }\n    \n    function addDetails(string memory _name, uint _age, string memory _city) public returns (string memory)\n    {\n        patient memory p;\n        p.name = _name;\n        p.age = _age;\n        p.city = _city;\n        patientInfo[msg.sender] = p;\n        p_List.push(msg.sender)-1;\n        //p_List[patientsCount] = msg.sender;\n        patientsCount++;\n\n        emit detailsAdded(msg.sender, \"Details of the patient has been added successfully\");\n        return \"Details added succesfully\";\n    }\n\n    function getPatientDet(address paddr) view public returns (string memory, uint, string memory, string memory) {\n        return (patientInfo[paddr].name,patientInfo[paddr].age,patientInfo[paddr].city,patientInfo[paddr].record_hash);\n    }\n    \n    function giveAccess(address _doctor_address) public returns (string memory) {\n       \n        require(doctors[_doctor_address] == false, \"Access already given to the doctor\");\n        doctors[_doctor_address] = true;\n        patientInfo[msg.sender].doctorAccessList.push(_doctor_address)-1;\n        //an event can be added\n        emit accessGiven(_doctor_address, \"Access given to the above addressed doctor\");\n        return \"Access granted\";\n    }\n    \n    //only owner is removed temporarily\n    function revokeAccess(address _doctor_address) public returns (string memory) {\n       \n        //if(doctors[_doctor_address]){\n        //    doctors[_doctor_address] = false;\n        //}\n        require(doctors[_doctor_address] == true, \"The Doctor doesn't have any access\");\n        doctors[_doctor_address] = false;\n        patientInfo[msg.sender].doctorAccessList.pop();\n        //can add an event\n        emit accessRevoked(_doctor_address, \"Access has been revoked from the doctor\");\n        return \"Access is revoked\";\n    }\n\n    function getAccessList(address paddr) view public returns (address[] memory){\n        return patientInfo[paddr].doctorAccessList;\n    }\n\n    function getHash(address paddr, address _doctor_address) public view returns (string memory) {\n        require(doctors[_doctor_address] == true, \"The Doctor doesn't have any access\");\n        return patientInfo[paddr].record_hash;\n    }\n\n    function addPrescriptions(address daddr, string memory disease_name, string memory medications) public returns(string memory){\n        require(doctors[daddr] == true, \"The Doctor doesn't have the permission to give out prescriptions\");\n        prescriptions[daddr][disease_name] = medications;\n        emit prescrAdded(daddr, 'Prescriptions added');\n        return 'Prescriptions added';\n\n    }\n\n    function giveAccessPrescr(address _pharma_address) public returns (string memory) {\n        require(pharmacy[_pharma_address] == false, \"Access to the prescriptions already given to the pharmacy\");\n        pharmacy[_pharma_address] = true;\n        patientInfo[msg.sender].prescAccessList.push(_pharma_address)-1;\n        //an event can be added\n        emit accessGiven(_pharma_address, \"Access to the prescriptions given to the above addressed pharmacy\");\n        return \"Access granted\";\n    }\n\n    function revokeAccessPrescr(address _pharma_address) public returns (string memory) {\n        require(pharmacy[_pharma_address] == true, \"This particular pharmacy doesn't have any access\");\n        pharmacy[_pharma_address] = false;\n        patientInfo[msg.sender].prescAccessList.pop();\n        //can add an event\n        emit accessRevoked(_pharma_address, \"Access has been revoked from the pharmacy\");\n        return \"Access is revoked\";\n    }\n\n    function getPrescriptions(address _doc_addr, address _ph_addr, string memory _disease_name) public view returns (string memory){\n         require(pharmacy[_ph_addr] == true, \"The pharmacy doesn't have the permission to access the prescriptions\");\n         return prescriptions[_doc_addr][_disease_name];   \n    }\n\n    function setIPFShash(string memory _hash)public returns(string memory){\n        patientInfo[msg.sender].record_hash = _hash;\n        return \"IPFS hash added successfully\";\n\n    }\n\n\n}",
  "sourcePath": "/home/jarvis/Desktop/Patient/contracts/Patient1.sol",
  "compiler": {
    "name": "solc",
    "version": "0.5.16+commit.9c3226ce.Emscripten.clang"
  },
  "schemaVersion": "3.4.8",
  "updatedAt": "2022-09-06T09:49:22.721Z",
  "networkType": "ethereum",
  "devdoc": {
    "methods": {}
  },
  "userdoc": {
    "methods": {}
  }
}