{
  "contractName": "Pharmacy",
  "abi": [
    {
      "inputs": [],
      "payable": false,
      "stateMutability": "nonpayable",
      "type": "constructor"
    },
    {
      "constant": true,
      "inputs": [],
      "name": "pharma_count",
      "outputs": [
        {
          "internalType": "uint256",
          "name": "",
          "type": "uint256"
        }
      ],
      "payable": false,
      "stateMutability": "view",
      "type": "function"
    }
  ],
  "bytecode": "0x6080604052348015600f57600080fd5b50336000806101000a81548173ffffffffffffffffffffffffffffffffffffffff021916908373ffffffffffffffffffffffffffffffffffffffff16021790555060848061005e6000396000f3fe6080604052348015600f57600080fd5b506004361060285760003560e01c80633cc8e31714602d575b600080fd5b60336049565b6040518082815260200191505060405180910390f35b6001548156fea265627a7a72315820edb0ec4c03cbd21fb7066a78edeaada489ceb811df588cf213dcf4a451bedcde64736f6c63430005100032",
  "source": "//SPDX-License-Identfier: MIT\n\npragma solidity ^0.5.0;\n\ncontract Pharmacy{\n\n    struct pharma {\n        string ph_name;\n        string city;\n        string state;\n    }\n\n    address owner_ph;\n    uint public pharma_count;\n\n    modifier only_owner(){\n        require(owner_ph == msg.sender);\n        _;\n    }\n\n    constructor() public {\n        owner_ph = msg.sender;\n    }\n\n    /*function addDet(string memory name, string memory city, string memory state ) public returns (string memory)\n    {\n        pharma memory pharma;\n        pharma.ph_name = name;\n        pharma.city = city;\n        pharma.state = state;\n\n        pharma_count++;\n\n        emit detailsAdded(msg.sender, \"Details of the pharmacy has been added successfully\");\n        return \"Details added succesfully\";\n    }*/\n\n\n\n\n\n}",
  "sourcePath": "/home/jarvis/Desktop/Patient/contracts/Pharmacy.sol",
  "compiler": {
    "name": "solc",
    "version": "0.5.16+commit.9c3226ce.Emscripten.clang"
  },
  "schemaVersion": "3.4.8",
  "updatedAt": "2022-08-02T16:12:55.908Z",
  "devdoc": {
    "methods": {}
  },
  "userdoc": {
    "methods": {}
  }
}