{
  "contractName": "Patient1",
  "abi": [
    {
      "inputs": [],
      "payable": false,
      "stateMutability": "nonpayable",
      "type": "constructor"
    },
    {
      "anonymous": false,
      "inputs": [
        {
          "indexed": false,
          "internalType": "address",
          "name": "_doctor",
          "type": "address"
        },
        {
          "indexed": false,
          "internalType": "string",
          "name": "message",
          "type": "string"
        }
      ],
      "name": "accessGiven",
      "type": "event"
    },
    {
      "anonymous": false,
      "inputs": [
        {
          "indexed": false,
          "internalType": "address",
          "name": "_doctor",
          "type": "address"
        },
        {
          "indexed": false,
          "internalType": "string",
          "name": "message",
          "type": "string"
        }
      ],
      "name": "accessRevoked",
      "type": "event"
    },
    {
      "anonymous": false,
      "inputs": [
        {
          "indexed": false,
          "internalType": "address",
          "name": "_patient",
          "type": "address"
        },
        {
          "indexed": false,
          "internalType": "string",
          "name": "message",
          "type": "string"
        }
      ],
      "name": "detailsAdded",
      "type": "event"
    },
    {
      "constant": true,
      "inputs": [
        {
          "internalType": "address",
          "name": "",
          "type": "address"
        }
      ],
      "name": "doctors",
      "outputs": [
        {
          "internalType": "bool",
          "name": "",
          "type": "bool"
        }
      ],
      "payable": false,
      "stateMutability": "view",
      "type": "function"
    },
    {
      "constant": true,
      "inputs": [
        {
          "internalType": "uint256",
          "name": "",
          "type": "uint256"
        }
      ],
      "name": "p_List",
      "outputs": [
        {
          "internalType": "address",
          "name": "",
          "type": "address"
        }
      ],
      "payable": false,
      "stateMutability": "view",
      "type": "function"
    },
    {
      "constant": true,
      "inputs": [
        {
          "internalType": "address",
          "name": "",
          "type": "address"
        }
      ],
      "name": "patientInfo",
      "outputs": [
        {
          "internalType": "string",
          "name": "name",
          "type": "string"
        },
        {
          "internalType": "uint256",
          "name": "age",
          "type": "uint256"
        },
        {
          "internalType": "string",
          "name": "city",
          "type": "string"
        },
        {
          "internalType": "string",
          "name": "record_hash",
          "type": "string"
        }
      ],
      "payable": false,
      "stateMutability": "view",
      "type": "function"
    },
    {
      "constant": true,
      "inputs": [],
      "name": "patientsCount",
      "outputs": [
        {
          "internalType": "uint256",
          "name": "",
          "type": "uint256"
        }
      ],
      "payable": false,
      "stateMutability": "view",
      "type": "function"
    },
    {
      "constant": false,
      "inputs": [
        {
          "internalType": "string",
          "name": "_name",
          "type": "string"
        },
        {
          "internalType": "uint256",
          "name": "_age",
          "type": "uint256"
        },
        {
          "internalType": "string",
          "name": "_city",
          "type": "string"
        },
        {
          "internalType": "string",
          "name": "_hash",
          "type": "string"
        }
      ],
      "name": "addDetails",
      "outputs": [
        {
          "internalType": "string",
          "name": "",
          "type": "string"
        }
      ],
      "payable": false,
      "stateMutability": "nonpayable",
      "type": "function"
    },
    {
      "constant": true,
      "inputs": [
        {
          "internalType": "address",
          "name": "paddr",
          "type": "address"
        }
      ],
      "name": "getPatientDet",
      "outputs": [
        {
          "internalType": "string",
          "name": "",
          "type": "string"
        },
        {
          "internalType": "uint256",
          "name": "",
          "type": "uint256"
        },
        {
          "internalType": "string",
          "name": "",
          "type": "string"
        },
        {
          "internalType": "string",
          "name": "",
          "type": "string"
        }
      ],
      "payable": false,
      "stateMutability": "view",
      "type": "function"
    },
    {
      "constant": false,
      "inputs": [
        {
          "internalType": "address",
          "name": "_doctor_address",
          "type": "address"
        }
      ],
      "name": "giveAccess",
      "outputs": [
        {
          "internalType": "string",
          "name": "",
          "type": "string"
        }
      ],
      "payable": false,
      "stateMutability": "nonpayable",
      "type": "function"
    },
    {
      "constant": false,
      "inputs": [
        {
          "internalType": "address",
          "name": "_doctor_address",
          "type": "address"
        }
      ],
      "name": "revokeAccess",
      "outputs": [
        {
          "internalType": "string",
          "name": "",
          "type": "string"
        }
      ],
      "payable": false,
      "stateMutability": "nonpayable",
      "type": "function"
    },
    {
      "constant": true,
      "inputs": [
        {
          "internalType": "address",
          "name": "paddr",
          "type": "address"
        }
      ],
      "name": "getAccessList",
      "outputs": [
        {
          "internalType": "address[]",
          "name": "",
          "type": "address[]"
        }
      ],
      "payable": false,
      "stateMutability": "view",
      "type": "function"
    },
    {
      "constant": true,
      "inputs": [
        {
          "internalType": "address",
          "name": "paddr",
          "type": "address"
        },
        {
          "internalType": "address",
          "name": "_doctor_address",
          "type": "address"
        }
      ],
      "name": "getHash",
      "outputs": [
        {
          "internalType": "string",
          "name": "",
          "type": "string"
        }
      ],
      "payable": false,
      "stateMutability": "view",
      "type": "function"
    }
  ],
  "bytecode": "0x608060405234801561001057600080fd5b50336000806101000a81548173ffffffffffffffffffffffffffffffffffffffff021916908373ffffffffffffffffffffffffffffffffffffffff160217905550611b38806100606000396000f3fe608060405234801561001057600080fd5b506004361061009e5760003560e01c8063a9583c2211610066578063a9583c221461066f578063b6b1289d146106cb578063cf12e870146106e9578063d0219417146107a6578063f8cc1850146109425761009e565b8063242505b5146100a35780636142d2dc1461011157806380efcb3c146102ad57806385e6853114610346578063a8a8cf2914610403575b600080fd5b6100cf600480360360208110156100b957600080fd5b8101908080359060200190929190505050610a1f565b604051808273ffffffffffffffffffffffffffffffffffffffff1673ffffffffffffffffffffffffffffffffffffffff16815260200191505060405180910390f35b6101536004803603602081101561012757600080fd5b81019080803573ffffffffffffffffffffffffffffffffffffffff169060200190929190505050610a5b565b60405180806020018581526020018060200180602001848103845288818151815260200191508051906020019080838360005b838110156101a1578082015181840152602081019050610186565b50505050905090810190601f1680156101ce5780820380516001836020036101000a031916815260200191505b50848103835286818151815260200191508051906020019080838360005b838110156102075780820151818401526020810190506101ec565b50505050905090810190601f1680156102345780820380516001836020036101000a031916815260200191505b50848103825285818151815260200191508051906020019080838360005b8381101561026d578082015181840152602081019050610252565b50505050905090810190601f16801561029a5780820380516001836020036101000a031916815260200191505b5097505050505050505060405180910390f35b6102ef600480360360208110156102c357600080fd5b81019080803573ffffffffffffffffffffffffffffffffffffffff169060200190929190505050610c53565b6040518080602001828103825283818151815260200191508051906020019060200280838360005b83811015610332578082015181840152602081019050610317565b505050509050019250505060405180910390f35b6103886004803603602081101561035c57600080fd5b81019080803573ffffffffffffffffffffffffffffffffffffffff169060200190929190505050610d23565b6040518080602001828103825283818151815260200191508051906020019080838360005b838110156103c85780820151818401526020810190506103ad565b50505050905090810190601f1680156103f55780820380516001836020036101000a031916815260200191505b509250505060405180910390f35b6105f46004803603608081101561041957600080fd5b810190808035906020019064010000000081111561043657600080fd5b82018360208201111561044857600080fd5b8035906020019184600183028401116401000000008311171561046a57600080fd5b91908080601f016020809104026020016040519081016040528093929190818152602001838380828437600081840152601f19601f82011690508083019250505050505050919291929080359060200190929190803590602001906401000000008111156104d757600080fd5b8201836020820111156104e957600080fd5b8035906020019184600183028401116401000000008311171561050b57600080fd5b91908080601f016020809104026020016040519081016040528093929190818152602001838380828437600081840152601f19601f8201169050808301925050505050505091929192908035906020019064010000000081111561056e57600080fd5b82018360208201111561058057600080fd5b803590602001918460018302840111640100000000831117156105a257600080fd5b91908080601f016020809104026020016040519081016040528093929190818152602001838380828437600081840152601f19601f820116905080830192505050505050509192919290505050610f62565b6040518080602001828103825283818151815260200191508051906020019080838360005b83811015610634578082015181840152602081019050610619565b50505050905090810190601f1680156106615780820380516001836020036101000a031916815260200191505b509250505060405180910390f35b6106b16004803603602081101561068557600080fd5b81019080803573ffffffffffffffffffffffffffffffffffffffff16906020019092919050505061118c565b604051808215151515815260200191505060405180910390f35b6106d36111ac565b6040518082815260200191505060405180910390f35b61072b600480360360208110156106ff57600080fd5b81019080803573ffffffffffffffffffffffffffffffffffffffff1690602001909291905050506111b2565b6040518080602001828103825283818151815260200191508051906020019080838360005b8381101561076b578082015181840152602081019050610750565b50505050905090810190601f1680156107985780820380516001836020036101000a031916815260200191505b509250505060405180910390f35b6107e8600480360360208110156107bc57600080fd5b81019080803573ffffffffffffffffffffffffffffffffffffffff16906020019092919050505061141a565b60405180806020018581526020018060200180602001848103845288818151815260200191508051906020019080838360005b8381101561083657808201518184015260208101905061081b565b50505050905090810190601f1680156108635780820380516001836020036101000a031916815260200191505b50848103835286818151815260200191508051906020019080838360005b8381101561089c578082015181840152602081019050610881565b50505050905090810190601f1680156108c95780820380516001836020036101000a031916815260200191505b50848103825285818151815260200191508051906020019080838360005b838110156109025780820151818401526020810190506108e7565b50505050905090810190601f16801561092f5780820380516001836020036101000a031916815260200191505b5097505050505050505060405180910390f35b6109a46004803603604081101561095857600080fd5b81019080803573ffffffffffffffffffffffffffffffffffffffff169060200190929190803573ffffffffffffffffffffffffffffffffffffffff16906020019092919050505061170d565b6040518080602001828103825283818151815260200191508051906020019080838360005b838110156109e45780820151818401526020810190506109c9565b50505050905090810190601f168015610a115780820380516001836020036101000a031916815260200191505b509250505060405180910390f35b60018181548110610a2c57fe5b906000526020600020016000915054906101000a900473ffffffffffffffffffffffffffffffffffffffff1681565b6003602052806000526040600020600091509050806000018054600181600116156101000203166002900480601f016020809104026020016040519081016040528092919081815260200182805460018160011615610100020316600290048015610b075780601f10610adc57610100808354040283529160200191610b07565b820191906000526020600020905b815481529060010190602001808311610aea57829003601f168201915b505050505090806001015490806002018054600181600116156101000203166002900480601f016020809104026020016040519081016040528092919081815260200182805460018160011615610100020316600290048015610bab5780601f10610b8057610100808354040283529160200191610bab565b820191906000526020600020905b815481529060010190602001808311610b8e57829003601f168201915b505050505090806004018054600181600116156101000203166002900480601f016020809104026020016040519081016040528092919081815260200182805460018160011615610100020316600290048015610c495780601f10610c1e57610100808354040283529160200191610c49565b820191906000526020600020905b815481529060010190602001808311610c2c57829003601f168201915b5050505050905084565b6060600360008373ffffffffffffffffffffffffffffffffffffffff1673ffffffffffffffffffffffffffffffffffffffff168152602001908152602001600020600301805480602002602001604051908101604052809291908181526020018280548015610d1757602002820191906000526020600020905b8160009054906101000a900473ffffffffffffffffffffffffffffffffffffffff1673ffffffffffffffffffffffffffffffffffffffff1681526020019060010190808311610ccd575b50505050509050919050565b606060011515600460008473ffffffffffffffffffffffffffffffffffffffff1673ffffffffffffffffffffffffffffffffffffffff16815260200190815260200160002060009054906101000a900460ff16151514610dce576040517f08c379a0000000000000000000000000000000000000000000000000000000008152600401808060200182810382526022815260200180611a866022913960400191505060405180910390fd5b6000600460008473ffffffffffffffffffffffffffffffffffffffff1673ffffffffffffffffffffffffffffffffffffffff16815260200190815260200160002060006101000a81548160ff021916908315150217905550600360003373ffffffffffffffffffffffffffffffffffffffff1673ffffffffffffffffffffffffffffffffffffffff168152602001908152602001600020600301805480610e7157fe5b6001900381819060005260206000200160006101000a81549073ffffffffffffffffffffffffffffffffffffffff021916905590557f26a779b544786104fb4a364d37b0091d141939fa90570056c0a1bc6a07bb957282604051808273ffffffffffffffffffffffffffffffffffffffff1673ffffffffffffffffffffffffffffffffffffffff1681526020018060200182810382526027815260200180611a3d602791396040019250505060405180910390a16040518060400160405280601181526020017f416363657373206973207265766f6b65640000000000000000000000000000008152509050919050565b6060610f6c61189b565b8581600001819052508481602001818152505082816080018190525083816040018190525080600360003373ffffffffffffffffffffffffffffffffffffffff1673ffffffffffffffffffffffffffffffffffffffff1681526020019081526020016000206000820151816000019080519060200190610fed9291906118ca565b506020820151816001015560408201518160020190805190602001906110149291906118ca565b50606082015181600301908051906020019061103192919061194a565b50608082015181600401908051906020019061104e9291906118ca565b509050506001803390806001815401808255809150509060018203906000526020600020016000909192909190916101000a81548173ffffffffffffffffffffffffffffffffffffffff021916908373ffffffffffffffffffffffffffffffffffffffff16021790555050506002600081548092919060010191905055507f2dd0dbde0b541d654cbad7f473661699639a8db7f1f8150566180d8c7ba78e3533604051808273ffffffffffffffffffffffffffffffffffffffff1673ffffffffffffffffffffffffffffffffffffffff1681526020018060200182810382526032815260200180611aa8603291396040019250505060405180910390a16040518060400160405280601981526020017f44657461696c732061646465642073756363657366756c6c7900000000000000815250915050949350505050565b60046020528060005260406000206000915054906101000a900460ff1681565b60025481565b606060001515600460008473ffffffffffffffffffffffffffffffffffffffff1673ffffffffffffffffffffffffffffffffffffffff16815260200190815260200160002060009054906101000a900460ff1615151461125d576040517f08c379a0000000000000000000000000000000000000000000000000000000008152600401808060200182810382526022815260200180611a646022913960400191505060405180910390fd5b6001600460008473ffffffffffffffffffffffffffffffffffffffff1673ffffffffffffffffffffffffffffffffffffffff16815260200190815260200160002060006101000a81548160ff0219169083151502179055506001600360003373ffffffffffffffffffffffffffffffffffffffff1673ffffffffffffffffffffffffffffffffffffffff1681526020019081526020016000206003018390806001815401808255809150509060018203906000526020600020016000909192909190916101000a81548173ffffffffffffffffffffffffffffffffffffffff021916908373ffffffffffffffffffffffffffffffffffffffff16021790555050507f5a2a28d0708bd1dc5a38513de612a87bee6f714881097828fd8c036e68e4386a82604051808273ffffffffffffffffffffffffffffffffffffffff1673ffffffffffffffffffffffffffffffffffffffff168152602001806020018281038252602a815260200180611ada602a91396040019250505060405180910390a16040518060400160405280600e81526020017f416363657373206772616e7465640000000000000000000000000000000000008152509050919050565b60606000606080600360008673ffffffffffffffffffffffffffffffffffffffff1673ffffffffffffffffffffffffffffffffffffffff168152602001908152602001600020600001600360008773ffffffffffffffffffffffffffffffffffffffff1673ffffffffffffffffffffffffffffffffffffffff16815260200190815260200160002060010154600360008873ffffffffffffffffffffffffffffffffffffffff1673ffffffffffffffffffffffffffffffffffffffff168152602001908152602001600020600201600360008973ffffffffffffffffffffffffffffffffffffffff1673ffffffffffffffffffffffffffffffffffffffff168152602001908152602001600020600401838054600181600116156101000203166002900480601f0160208091040260200160405190810160405280929190818152602001828054600181600116156101000203166002900480156115bf5780601f10611594576101008083540402835291602001916115bf565b820191906000526020600020905b8154815290600101906020018083116115a257829003601f168201915b50505050509350818054600181600116156101000203166002900480601f01602080910402602001604051908101604052809291908181526020018280546001816001161561010002031660029004801561165b5780601f106116305761010080835404028352916020019161165b565b820191906000526020600020905b81548152906001019060200180831161163e57829003601f168201915b50505050509150808054600181600116156101000203166002900480601f0160208091040260200160405190810160405280929190818152602001828054600181600116156101000203166002900480156116f75780601f106116cc576101008083540402835291602001916116f7565b820191906000526020600020905b8154815290600101906020018083116116da57829003601f168201915b5050505050905093509350935093509193509193565b606060011515600460008473ffffffffffffffffffffffffffffffffffffffff1673ffffffffffffffffffffffffffffffffffffffff16815260200190815260200160002060009054906101000a900460ff161515146117b8576040517f08c379a0000000000000000000000000000000000000000000000000000000008152600401808060200182810382526022815260200180611a866022913960400191505060405180910390fd5b600360008473ffffffffffffffffffffffffffffffffffffffff1673ffffffffffffffffffffffffffffffffffffffff1681526020019081526020016000206004018054600181600116156101000203166002900480601f01602080910402602001604051908101604052809291908181526020018280546001816001161561010002031660029004801561188e5780601f106118635761010080835404028352916020019161188e565b820191906000526020600020905b81548152906001019060200180831161187157829003601f168201915b5050505050905092915050565b6040518060a0016040528060608152602001600081526020016060815260200160608152602001606081525090565b828054600181600116156101000203166002900490600052602060002090601f016020900481019282601f1061190b57805160ff1916838001178555611939565b82800160010185558215611939579182015b8281111561193857825182559160200191906001019061191d565b5b50905061194691906119d4565b5090565b8280548282559060005260206000209081019282156119c3579160200282015b828111156119c25782518260006101000a81548173ffffffffffffffffffffffffffffffffffffffff021916908373ffffffffffffffffffffffffffffffffffffffff1602179055509160200191906001019061196a565b5b5090506119d091906119f9565b5090565b6119f691905b808211156119f25760008160009055506001016119da565b5090565b90565b611a3991905b80821115611a3557600081816101000a81549073ffffffffffffffffffffffffffffffffffffffff0219169055506001016119ff565b5090565b9056fe41636365737320686173206265656e207265766f6b65642066726f6d2074686520646f63746f7241636365737320616c726561647920676976656e20746f2074686520646f63746f7254686520446f63746f7220646f65736e2774206861766520616e792061636365737344657461696c73206f66207468652070617469656e7420686173206265656e206164646564207375636365737366756c6c7941636365737320676976656e20746f207468652061626f76652061646472657373656420646f63746f72a265627a7a72315820c9b4725bee043c4d36aa79ab74b71a704010af4c9abacec48b3ff0147c6f2c2b64736f6c63430005100032",
  "source": "//SPDX-License-Identifier: MIT\n\npragma solidity ^0.5.0;\n\ncontract Patient1{\n\n    struct patient {\n        string name;\n        uint age;\n        string city;\n        address[] doctorAccessList;\n        string record_hash;\n    }\n\n    address owner_p;\n    address[] public p_List;\n    uint public patientsCount;\n\n    mapping (address => patient) public patientInfo;\n     \n    mapping (address => bool) public doctors;\n\n    event detailsAdded(address _patient, string message);\n    event accessGiven(address _doctor, string message);\n    event accessRevoked(address _doctor, string message);\n\n     modifier only_owner(){\n        require(owner_p == msg.sender);\n        _;\n    }\n\n    constructor() public {\n        owner_p = msg.sender;\n        //patientsCount = 0;\n    }\n    \n    function addDetails(string memory _name, uint _age, string memory _city, string memory _hash) public returns (string memory)\n    {\n        patient memory p;\n        p.name = _name;\n        p.age = _age;\n        p.record_hash = _hash;\n        p.city = _city;\n        patientInfo[msg.sender] = p;\n        p_List.push(msg.sender)-1;\n        //p_List[patientsCount] = msg.sender;\n        patientsCount++;\n\n        emit detailsAdded(msg.sender, \"Details of the patient has been added successfully\");\n        return \"Details added succesfully\";\n    }\n\n    function getPatientDet(address paddr) view public returns (string memory, uint, string memory, string memory) {\n        return (patientInfo[paddr].name,patientInfo[paddr].age,patientInfo[paddr].city,patientInfo[paddr].record_hash);\n    }\n    \n    function giveAccess(address _doctor_address) public returns (string memory) {\n       \n        require(doctors[_doctor_address] == false, \"Access already given to the doctor\");\n        doctors[_doctor_address] = true;\n        patientInfo[msg.sender].doctorAccessList.push(_doctor_address)-1;\n        //an event can be added\n        emit accessGiven(_doctor_address, \"Access given to the above addressed doctor\");\n        return \"Access granted\";\n    }\n    \n    //only owner is removed temporarily\n    function revokeAccess(address _doctor_address) public returns (string memory) {\n       \n        //if(doctors[_doctor_address]){\n        //    doctors[_doctor_address] = false;\n        //}\n        require(doctors[_doctor_address] == true, \"The Doctor doesn't have any access\");\n        doctors[_doctor_address] = false;\n        patientInfo[msg.sender].doctorAccessList.pop();\n        //can add an event\n        emit accessRevoked(_doctor_address, \"Access has been revoked from the doctor\");\n        return \"Access is revoked\";\n    }\n\n    function getAccessList(address paddr) view public returns (address[] memory){\n        return patientInfo[paddr].doctorAccessList;\n    }\n\n    function getHash(address paddr, address _doctor_address) public view returns (string memory) {\n        require(doctors[_doctor_address] == true, \"The Doctor doesn't have any access\");\n        return patientInfo[paddr].record_hash;\n    }\n\n\n\n}",
  "sourcePath": "/home/jarvis/Desktop/Patient/contracts/Patient1.sol",
  "compiler": {
    "name": "solc",
    "version": "0.5.16+commit.9c3226ce.Emscripten.clang"
  },
  "schemaVersion": "3.4.8",
  "updatedAt": "2022-07-28T09:48:06.008Z",
  "networkType": "ethereum",
  "devdoc": {
    "methods": {}
  },
  "userdoc": {
    "methods": {}
  }
}