{
  "contractName": "Patient",
  "abi": [
    {
      "inputs": [],
      "payable": false,
      "stateMutability": "nonpayable",
      "type": "constructor"
    },
    {
      "constant": true,
      "inputs": [],
      "name": "patient_count",
      "outputs": [
        {
          "internalType": "uint256",
          "name": "",
          "type": "uint256"
        }
      ],
      "payable": false,
      "stateMutability": "view",
      "type": "function"
    },
    {
      "constant": true,
      "inputs": [
        {
          "internalType": "uint256",
          "name": "",
          "type": "uint256"
        }
      ],
      "name": "patients",
      "outputs": [
        {
          "internalType": "uint256",
          "name": "pid",
          "type": "uint256"
        },
        {
          "internalType": "string",
          "name": "pname",
          "type": "string"
        },
        {
          "internalType": "uint256",
          "name": "p_visits",
          "type": "uint256"
        }
      ],
      "payable": false,
      "stateMutability": "view",
      "type": "function"
    },
    {
      "constant": false,
      "inputs": [
        {
          "internalType": "string",
          "name": "name",
          "type": "string"
        }
      ],
      "name": "addPatient",
      "outputs": [],
      "payable": false,
      "stateMutability": "nonpayable",
      "type": "function"
    }
  ],
  "bytecode": "0x608060405234801561001057600080fd5b506040518060600160405280600081526020016040518060400160405280600481526020017f4e6f6e65000000000000000000000000000000000000000000000000000000008152508152602001600081525060008080815260200190815260200160002060008201518160000155602082015181600101908051906020019061009b9291906100ae565b5060408201518160020155905050610153565b828054600181600116156101000203166002900490600052602060002090601f016020900481019282601f106100ef57805160ff191683800117855561011d565b8280016001018555821561011d579182015b8281111561011c578251825591602001919060010190610101565b5b50905061012a919061012e565b5090565b61015091905b8082111561014c576000816000905550600101610134565b5090565b90565b6103f1806101626000396000f3fe608060405234801561001057600080fd5b50600436106100415760003560e01c80636c6063bc1461004657806393119a8314610064578063fb87cf9414610119575b600080fd5b61004e6101d4565b6040518082815260200191505060405180910390f35b6100906004803603602081101561007a57600080fd5b81019080803590602001909291905050506101da565b6040518084815260200180602001838152602001828103825284818151815260200191508051906020019080838360005b838110156100dc5780820151818401526020810190506100c1565b50505050905090810190601f1680156101095780820380516001836020036101000a031916815260200191505b5094505050505060405180910390f35b6101d26004803603602081101561012f57600080fd5b810190808035906020019064010000000081111561014c57600080fd5b82018360208201111561015e57600080fd5b8035906020019184600183028401116401000000008311171561018057600080fd5b91908080601f016020809104026020016040519081016040528093929190818152602001838380828437600081840152601f19601f82011690508083019250505050505050919291929050505061029c565b005b60015481565b6000602052806000526040600020600091509050806000015490806001018054600181600116156101000203166002900480601f01602080910402602001604051908101604052809291908181526020018280546001816001161561010002031660029004801561028c5780601f106102615761010080835404028352916020019161028c565b820191906000526020600020905b81548152906001019060200180831161026f57829003601f168201915b5050505050908060020154905083565b6001600081548092919060010191905055506040518060600160405280600154815260200182815260200160008152506000806001548152602001908152602001600020600082015181600001556020820151816001019080519060200190610306929190610317565b506040820151816002015590505050565b828054600181600116156101000203166002900490600052602060002090601f016020900481019282601f1061035857805160ff1916838001178555610386565b82800160010185558215610386579182015b8281111561038557825182559160200191906001019061036a565b5b5090506103939190610397565b5090565b6103b991905b808211156103b557600081600090555060010161039d565b5090565b9056fea265627a7a72315820a0594b6854057f86ccd2d47d4948d52af55f5842e7df1a8d0c28bf4ee3c5946764736f6c63430005100032",
  "source": "// SPDX-License-Identifier: MIT\npragma solidity ^0.5.0;\n\ncontract Patient {\n    struct Patient_det {\n        uint pid;\n        string pname;\n        uint p_visits;\n    }\n    \n    mapping(uint => Patient_det) public patients;\n    uint public patient_count;\n\n    constructor() public {\n        patients[0] = Patient_det(0,\"None\",0);\n    }\n\n    function addPatient(string memory name) public{\n        patient_count++;\n        patients[patient_count] = Patient_det(patient_count, name, 0);\n    }\n\n}",
  "sourcePath": "/home/jarvis/Desktop/Patient/contracts/Patient.sol",
  "compiler": {
    "name": "solc",
    "version": "0.5.16+commit.9c3226ce.Emscripten.clang"
  },
  "schemaVersion": "3.4.8",
  "updatedAt": "2022-07-28T09:48:06.006Z",
  "networkType": "ethereum",
  "devdoc": {
    "methods": {}
  },
  "userdoc": {
    "methods": {}
  }
}